{
  "_format": "hh-sol-artifact-1",
  "contractName": "DogelonMartians",
  "sourceName": "contracts/DogelonMartians.sol",
  "abi": [
    {
      "inputs": [
        {
          "internalType": "string",
          "name": "name",
          "type": "string"
        },
        {
          "internalType": "string",
          "name": "symbol",
          "type": "string"
        },
        {
          "internalType": "string",
          "name": "_uri",
          "type": "string"
        }
      ],
      "stateMutability": "nonpayable",
      "type": "constructor"
    },
    {
      "anonymous": false,
      "inputs": [
        {
          "indexed": true,
          "internalType": "address",
          "name": "owner",
          "type": "address"
        },
        {
          "indexed": true,
          "internalType": "address",
          "name": "approved",
          "type": "address"
        },
        {
          "indexed": true,
          "internalType": "uint256",
          "name": "tokenId",
          "type": "uint256"
        }
      ],
      "name": "Approval",
      "type": "event"
    },
    {
      "anonymous": false,
      "inputs": [
        {
          "indexed": true,
          "internalType": "address",
          "name": "owner",
          "type": "address"
        },
        {
          "indexed": true,
          "internalType": "address",
          "name": "operator",
          "type": "address"
        },
        {
          "indexed": false,
          "internalType": "bool",
          "name": "approved",
          "type": "bool"
        }
      ],
      "name": "ApprovalForAll",
      "type": "event"
    },
    {
      "anonymous": false,
      "inputs": [
        {
          "indexed": true,
          "internalType": "address",
          "name": "from",
          "type": "address"
        },
        {
          "indexed": true,
          "internalType": "address",
          "name": "to",
          "type": "address"
        },
        {
          "indexed": true,
          "internalType": "uint256",
          "name": "tokenId",
          "type": "uint256"
        }
      ],
      "name": "Transfer",
      "type": "event"
    },
    {
      "inputs": [],
      "name": "MAX_MARTIANS",
      "outputs": [
        {
          "internalType": "uint256",
          "name": "",
          "type": "uint256"
        }
      ],
      "stateMutability": "view",
      "type": "function"
    },
    {
      "inputs": [
        {
          "internalType": "address",
          "name": "to",
          "type": "address"
        },
        {
          "internalType": "uint256",
          "name": "tokenId",
          "type": "uint256"
        }
      ],
      "name": "approve",
      "outputs": [],
      "stateMutability": "nonpayable",
      "type": "function"
    },
    {
      "inputs": [
        {
          "internalType": "address",
          "name": "owner",
          "type": "address"
        }
      ],
      "name": "balanceOf",
      "outputs": [
        {
          "internalType": "uint256",
          "name": "",
          "type": "uint256"
        }
      ],
      "stateMutability": "view",
      "type": "function"
    },
    {
      "inputs": [],
      "name": "baseUri",
      "outputs": [
        {
          "internalType": "string",
          "name": "",
          "type": "string"
        }
      ],
      "stateMutability": "view",
      "type": "function"
    },
    {
      "inputs": [],
      "name": "currentSupply",
      "outputs": [
        {
          "internalType": "uint256",
          "name": "",
          "type": "uint256"
        }
      ],
      "stateMutability": "view",
      "type": "function"
    },
    {
      "inputs": [
        {
          "internalType": "uint256",
          "name": "tokenId",
          "type": "uint256"
        }
      ],
      "name": "getApproved",
      "outputs": [
        {
          "internalType": "address",
          "name": "",
          "type": "address"
        }
      ],
      "stateMutability": "view",
      "type": "function"
    },
    {
      "inputs": [
        {
          "internalType": "address",
          "name": "owner",
          "type": "address"
        },
        {
          "internalType": "address",
          "name": "operator",
          "type": "address"
        }
      ],
      "name": "isApprovedForAll",
      "outputs": [
        {
          "internalType": "bool",
          "name": "",
          "type": "bool"
        }
      ],
      "stateMutability": "view",
      "type": "function"
    },
    {
      "inputs": [],
      "name": "isSoldOut",
      "outputs": [
        {
          "internalType": "bool",
          "name": "",
          "type": "bool"
        }
      ],
      "stateMutability": "view",
      "type": "function"
    },
    {
      "inputs": [],
      "name": "lockUri",
      "outputs": [],
      "stateMutability": "nonpayable",
      "type": "function"
    },
    {
      "inputs": [
        {
          "internalType": "uint256",
          "name": "amountToBuy",
          "type": "uint256"
        }
      ],
      "name": "mint",
      "outputs": [],
      "stateMutability": "payable",
      "type": "function"
    },
    {
      "inputs": [],
      "name": "name",
      "outputs": [
        {
          "internalType": "string",
          "name": "",
          "type": "string"
        }
      ],
      "stateMutability": "view",
      "type": "function"
    },
    {
      "inputs": [],
      "name": "owner",
      "outputs": [
        {
          "internalType": "address",
          "name": "",
          "type": "address"
        }
      ],
      "stateMutability": "view",
      "type": "function"
    },
    {
      "inputs": [
        {
          "internalType": "uint256",
          "name": "tokenId",
          "type": "uint256"
        }
      ],
      "name": "ownerOf",
      "outputs": [
        {
          "internalType": "address",
          "name": "",
          "type": "address"
        }
      ],
      "stateMutability": "view",
      "type": "function"
    },
    {
      "inputs": [],
      "name": "price",
      "outputs": [
        {
          "internalType": "uint256",
          "name": "",
          "type": "uint256"
        }
      ],
      "stateMutability": "view",
      "type": "function"
    },
    {
      "inputs": [
        {
          "internalType": "address",
          "name": "from",
          "type": "address"
        },
        {
          "internalType": "address",
          "name": "to",
          "type": "address"
        },
        {
          "internalType": "uint256",
          "name": "tokenId",
          "type": "uint256"
        }
      ],
      "name": "safeTransferFrom",
      "outputs": [],
      "stateMutability": "nonpayable",
      "type": "function"
    },
    {
      "inputs": [
        {
          "internalType": "address",
          "name": "from",
          "type": "address"
        },
        {
          "internalType": "address",
          "name": "to",
          "type": "address"
        },
        {
          "internalType": "uint256",
          "name": "tokenId",
          "type": "uint256"
        },
        {
          "internalType": "bytes",
          "name": "_data",
          "type": "bytes"
        }
      ],
      "name": "safeTransferFrom",
      "outputs": [],
      "stateMutability": "nonpayable",
      "type": "function"
    },
    {
      "inputs": [],
      "name": "saleActive",
      "outputs": [
        {
          "internalType": "bool",
          "name": "",
          "type": "bool"
        }
      ],
      "stateMutability": "view",
      "type": "function"
    },
    {
      "inputs": [
        {
          "internalType": "address",
          "name": "operator",
          "type": "address"
        },
        {
          "internalType": "bool",
          "name": "approved",
          "type": "bool"
        }
      ],
      "name": "setApprovalForAll",
      "outputs": [],
      "stateMutability": "nonpayable",
      "type": "function"
    },
    {
      "inputs": [
        {
          "internalType": "string",
          "name": "newBaseUri",
          "type": "string"
        }
      ],
      "name": "setBaseUri",
      "outputs": [],
      "stateMutability": "nonpayable",
      "type": "function"
    },
    {
      "inputs": [
        {
          "internalType": "uint256",
          "name": "_price",
          "type": "uint256"
        }
      ],
      "name": "setPrice",
      "outputs": [],
      "stateMutability": "nonpayable",
      "type": "function"
    },
    {
      "inputs": [
        {
          "internalType": "bytes4",
          "name": "interfaceId",
          "type": "bytes4"
        }
      ],
      "name": "supportsInterface",
      "outputs": [
        {
          "internalType": "bool",
          "name": "",
          "type": "bool"
        }
      ],
      "stateMutability": "view",
      "type": "function"
    },
    {
      "inputs": [],
      "name": "symbol",
      "outputs": [
        {
          "internalType": "string",
          "name": "",
          "type": "string"
        }
      ],
      "stateMutability": "view",
      "type": "function"
    },
    {
      "inputs": [
        {
          "internalType": "uint256",
          "name": "tokenId",
          "type": "uint256"
        }
      ],
      "name": "tokenURI",
      "outputs": [
        {
          "internalType": "string",
          "name": "",
          "type": "string"
        }
      ],
      "stateMutability": "view",
      "type": "function"
    },
    {
      "inputs": [
        {
          "internalType": "address",
          "name": "from",
          "type": "address"
        },
        {
          "internalType": "address",
          "name": "to",
          "type": "address"
        },
        {
          "internalType": "uint256",
          "name": "tokenId",
          "type": "uint256"
        }
      ],
      "name": "transferFrom",
      "outputs": [],
      "stateMutability": "nonpayable",
      "type": "function"
    },
    {
      "inputs": [],
      "name": "uriLocked",
      "outputs": [
        {
          "internalType": "bool",
          "name": "",
          "type": "bool"
        }
      ],
      "stateMutability": "view",
      "type": "function"
    },
    {
      "inputs": [],
      "name": "withdraw",
      "outputs": [],
      "stateMutability": "nonpayable",
      "type": "function"
    }
  ],
  "bytecode": "0x60a060405267011c37937e0800006006556000600a60006101000a81548160ff0219169083151502179055503480156200003857600080fd5b5060405162003a5d38038062003a5d83398181016040528101906200005e919062000337565b8282816000908051906020019062000078929190620000ea565b50806001908051906020019062000091929190620000ea565b5050503373ffffffffffffffffffffffffffffffffffffffff1660808173ffffffffffffffffffffffffffffffffffffffff16815250508060099080519060200190620000e0929190620000ea565b5050505062000455565b828054620000f8906200041f565b90600052602060002090601f0160209004810192826200011c576000855562000168565b82601f106200013757805160ff191683800117855562000168565b8280016001018555821562000168579182015b82811115620001675782518255916020019190600101906200014a565b5b5090506200017791906200017b565b5090565b5b80821115620001965760008160009055506001016200017c565b5090565b6000604051905090565b600080fd5b600080fd5b600080fd5b600080fd5b6000601f19601f8301169050919050565b7f4e487b7100000000000000000000000000000000000000000000000000000000600052604160045260246000fd5b6200020382620001b8565b810181811067ffffffffffffffff82111715620002255762000224620001c9565b5b80604052505050565b60006200023a6200019a565b9050620002488282620001f8565b919050565b600067ffffffffffffffff8211156200026b576200026a620001c9565b5b6200027682620001b8565b9050602081019050919050565b60005b83811015620002a357808201518184015260208101905062000286565b83811115620002b3576000848401525b50505050565b6000620002d0620002ca846200024d565b6200022e565b905082815260208101848484011115620002ef57620002ee620001b3565b5b620002fc84828562000283565b509392505050565b600082601f8301126200031c576200031b620001ae565b5b81516200032e848260208601620002b9565b91505092915050565b600080600060608486031215620003535762000352620001a4565b5b600084015167ffffffffffffffff811115620003745762000373620001a9565b5b620003828682870162000304565b935050602084015167ffffffffffffffff811115620003a657620003a5620001a9565b5b620003b48682870162000304565b925050604084015167ffffffffffffffff811115620003d857620003d7620001a9565b5b620003e68682870162000304565b9150509250925092565b7f4e487b7100000000000000000000000000000000000000000000000000000000600052602260045260246000fd5b600060028204905060018216806200043857607f821691505b602082108114156200044f576200044e620003f0565b5b50919050565b6080516135c962000494600039600081816109a001528181610a2e01528181610c3a01528181610c5e01528181610cf6015261112901526135c96000f3fe6080604052600436106101815760003560e01c80638da5cb5b116100d1578063a0712d681161008a578063b88d4fde11610064578063b88d4fde1461053d578063b90a7d9414610566578063c87b56dd14610591578063e985e9c5146105ce57610181565b8063a0712d68146104cf578063a0bcfc7f146104eb578063a22cb4651461051457610181565b80638da5cb5b146103e357806391b7f5ed1461040e578063934517ef1461043757806395d89b411461044e5780639abc832014610479578063a035b1fe146104a457610181565b80632da5ea171161013e5780636352211e116101185780636352211e1461031357806368428a1b1461035057806370a082311461037b578063771282f6146103b857610181565b80632da5ea17146102a85780633ccfd60b146102d357806342842e0e146102ea57610181565b806301ffc9a71461018657806306fdde03146101c3578063081812fc146101ee578063095ea7b31461022b57806320c5ab6a1461025457806323b872dd1461027f575b600080fd5b34801561019257600080fd5b506101ad60048036038101906101a89190612114565b61060b565b6040516101ba919061215c565b60405180910390f35b3480156101cf57600080fd5b506101d86106ed565b6040516101e59190612210565b60405180910390f35b3480156101fa57600080fd5b5061021560048036038101906102109190612268565b61077f565b60405161022291906122d6565b60405180910390f35b34801561023757600080fd5b50610252600480360381019061024d919061231d565b610804565b005b34801561026057600080fd5b5061026961091c565b604051610276919061215c565b60405180910390f35b34801561028b57600080fd5b506102a660048036038101906102a1919061235d565b61092f565b005b3480156102b457600080fd5b506102bd61098f565b6040516102ca919061215c565b60405180910390f35b3480156102df57600080fd5b506102e861099e565b005b3480156102f657600080fd5b50610311600480360381019061030c919061235d565b610a95565b005b34801561031f57600080fd5b5061033a60048036038101906103359190612268565b610ab5565b60405161034791906122d6565b60405180910390f35b34801561035c57600080fd5b50610365610b67565b604051610372919061215c565b60405180910390f35b34801561038757600080fd5b506103a2600480360381019061039d91906123b0565b610b7a565b6040516103af91906123ec565b60405180910390f35b3480156103c457600080fd5b506103cd610c32565b6040516103da91906123ec565b60405180910390f35b3480156103ef57600080fd5b506103f8610c38565b60405161040591906122d6565b60405180910390f35b34801561041a57600080fd5b5061043560048036038101906104309190612268565b610c5c565b005b34801561044357600080fd5b5061044c610cf4565b005b34801561045a57600080fd5b50610463610df5565b6040516104709190612210565b60405180910390f35b34801561048557600080fd5b5061048e610e87565b60405161049b9190612210565b60405180910390f35b3480156104b057600080fd5b506104b9610f15565b6040516104c691906123ec565b60405180910390f35b6104e960048036038101906104e49190612268565b610f1b565b005b3480156104f757600080fd5b50610512600480360381019061050d919061253c565b611127565b005b34801561052057600080fd5b5061053b600480360381019061053691906125b1565b611225565b005b34801561054957600080fd5b50610564600480360381019061055f9190612692565b61123b565b005b34801561057257600080fd5b5061057b61129d565b60405161058891906123ec565b60405180910390f35b34801561059d57600080fd5b506105b860048036038101906105b39190612268565b6112a3565b6040516105c59190612210565b60405180910390f35b3480156105da57600080fd5b506105f560048036038101906105f09190612715565b61134a565b604051610602919061215c565b60405180910390f35b60007f80ac58cd000000000000000000000000000000000000000000000000000000007bffffffffffffffffffffffffffffffffffffffffffffffffffffffff1916827bffffffffffffffffffffffffffffffffffffffffffffffffffffffff191614806106d657507f5b5e139f000000000000000000000000000000000000000000000000000000007bffffffffffffffffffffffffffffffffffffffffffffffffffffffff1916827bffffffffffffffffffffffffffffffffffffffffffffffffffffffff1916145b806106e657506106e5826113de565b5b9050919050565b6060600080546106fc90612784565b80601f016020809104026020016040519081016040528092919081815260200182805461072890612784565b80156107755780601f1061074a57610100808354040283529160200191610775565b820191906000526020600020905b81548152906001019060200180831161075857829003601f168201915b5050505050905090565b600061078a82611448565b6107c9576040517f08c379a00000000000000000000000000000000000000000000000000000000081526004016107c090612828565b60405180910390fd5b6004600083815260200190815260200160002060009054906101000a900473ffffffffffffffffffffffffffffffffffffffff169050919050565b600061080f82610ab5565b90508073ffffffffffffffffffffffffffffffffffffffff168373ffffffffffffffffffffffffffffffffffffffff161415610880576040517f08c379a0000000000000000000000000000000000000000000000000000000008152600401610877906128ba565b60405180910390fd5b8073ffffffffffffffffffffffffffffffffffffffff1661089f6114b4565b73ffffffffffffffffffffffffffffffffffffffff1614806108ce57506108cd816108c86114b4565b61134a565b5b61090d576040517f08c379a00000000000000000000000000000000000000000000000000000000081526004016109049061294c565b60405180910390fd5b61091783836114bc565b505050565b600a60009054906101000a900460ff1681565b61094061093a6114b4565b82611575565b61097f576040517f08c379a0000000000000000000000000000000000000000000000000000000008152600401610976906129de565b60405180910390fd5b61098a838383611653565b505050565b60006127106008541015905090565b7f000000000000000000000000000000000000000000000000000000000000000073ffffffffffffffffffffffffffffffffffffffff163373ffffffffffffffffffffffffffffffffffffffff1614610a2c576040517f08c379a0000000000000000000000000000000000000000000000000000000008152600401610a2390612a4a565b60405180910390fd5b7f000000000000000000000000000000000000000000000000000000000000000073ffffffffffffffffffffffffffffffffffffffff166108fc479081150290604051600060405180830381858888f19350505050158015610a92573d6000803e3d6000fd5b50565b610ab08383836040518060200160405280600081525061123b565b505050565b6000806002600084815260200190815260200160002060009054906101000a900473ffffffffffffffffffffffffffffffffffffffff169050600073ffffffffffffffffffffffffffffffffffffffff168173ffffffffffffffffffffffffffffffffffffffff161415610b5e576040517f08c379a0000000000000000000000000000000000000000000000000000000008152600401610b5590612adc565b60405180910390fd5b80915050919050565b600760009054906101000a900460ff1681565b60008073ffffffffffffffffffffffffffffffffffffffff168273ffffffffffffffffffffffffffffffffffffffff161415610beb576040517f08c379a0000000000000000000000000000000000000000000000000000000008152600401610be290612b6e565b60405180910390fd5b600360008373ffffffffffffffffffffffffffffffffffffffff1673ffffffffffffffffffffffffffffffffffffffff168152602001908152602001600020549050919050565b60085481565b7f000000000000000000000000000000000000000000000000000000000000000081565b7f000000000000000000000000000000000000000000000000000000000000000073ffffffffffffffffffffffffffffffffffffffff163373ffffffffffffffffffffffffffffffffffffffff1614610cea576040517f08c379a0000000000000000000000000000000000000000000000000000000008152600401610ce190612a4a565b60405180910390fd5b8060068190555050565b7f000000000000000000000000000000000000000000000000000000000000000073ffffffffffffffffffffffffffffffffffffffff163373ffffffffffffffffffffffffffffffffffffffff1614610d82576040517f08c379a0000000000000000000000000000000000000000000000000000000008152600401610d7990612a4a565b60405180910390fd5b60001515600a60009054906101000a900460ff16151514610dd8576040517f08c379a0000000000000000000000000000000000000000000000000000000008152600401610dcf90612bda565b60405180910390fd5b6001600a60006101000a81548160ff021916908315150217905550565b606060018054610e0490612784565b80601f0160208091040260200160405190810160405280929190818152602001828054610e3090612784565b8015610e7d5780601f10610e5257610100808354040283529160200191610e7d565b820191906000526020600020905b815481529060010190602001808311610e6057829003601f168201915b5050505050905090565b60098054610e9490612784565b80601f0160208091040260200160405190810160405280929190818152602001828054610ec090612784565b8015610f0d5780601f10610ee257610100808354040283529160200191610f0d565b820191906000526020600020905b815481529060010190602001808311610ef057829003601f168201915b505050505081565b60065481565b61271060085410610f61576040517f08c379a0000000000000000000000000000000000000000000000000000000008152600401610f5890612c46565b60405180910390fd5b600760009054906101000a900460ff16610fb0576040517f08c379a0000000000000000000000000000000000000000000000000000000008152600401610fa790612cb2565b60405180910390fd5b60018110158015610fc25750600a8111155b611001576040517f08c379a0000000000000000000000000000000000000000000000000000000008152600401610ff890612d1e565b60405180910390fd5b8060065461100f9190612d6d565b3414611050576040517f08c379a000000000000000000000000000000000000000000000000000000000815260040161104790612e13565b60405180910390fd5b60005b81811015611123576110793360086000815461106e90612e33565b9190508190556118ba565b6127106008541415611110576000600760006101000a81548160ff0219169083151502179055503373ffffffffffffffffffffffffffffffffffffffff166108fc600654600184866110cb9190612e7c565b6110d59190612e7c565b6110df9190612d6d565b9081150290604051600060405180830381858888f1935050505015801561110a573d6000803e3d6000fd5b50611123565b808061111b90612e33565b915050611053565b5050565b7f000000000000000000000000000000000000000000000000000000000000000073ffffffffffffffffffffffffffffffffffffffff163373ffffffffffffffffffffffffffffffffffffffff16146111b5576040517f08c379a00000000000000000000000000000000000000000000000000000000081526004016111ac90612a4a565b60405180910390fd5b60001515600a60009054906101000a900460ff1615151461120b576040517f08c379a000000000000000000000000000000000000000000000000000000000815260040161120290612efc565b60405180910390fd5b8060099080519060200190611221929190612005565b5050565b6112376112306114b4565b8383611a94565b5050565b61124c6112466114b4565b83611575565b61128b576040517f08c379a0000000000000000000000000000000000000000000000000000000008152600401611282906129de565b60405180910390fd5b61129784848484611c01565b50505050565b61271081565b60606112ae82611448565b6112ed576040517f08c379a00000000000000000000000000000000000000000000000000000000081526004016112e490612f8e565b60405180910390fd5b60006112f7611c5d565b905060008151116113175760405180602001604052806000815250611342565b8061132184611cef565b604051602001611332929190612fea565b6040516020818303038152906040525b915050919050565b6000600560008473ffffffffffffffffffffffffffffffffffffffff1673ffffffffffffffffffffffffffffffffffffffff16815260200190815260200160002060008373ffffffffffffffffffffffffffffffffffffffff1673ffffffffffffffffffffffffffffffffffffffff16815260200190815260200160002060009054906101000a900460ff16905092915050565b60007f01ffc9a7000000000000000000000000000000000000000000000000000000007bffffffffffffffffffffffffffffffffffffffffffffffffffffffff1916827bffffffffffffffffffffffffffffffffffffffffffffffffffffffff1916149050919050565b60008073ffffffffffffffffffffffffffffffffffffffff166002600084815260200190815260200160002060009054906101000a900473ffffffffffffffffffffffffffffffffffffffff1673ffffffffffffffffffffffffffffffffffffffff1614159050919050565b600033905090565b816004600083815260200190815260200160002060006101000a81548173ffffffffffffffffffffffffffffffffffffffff021916908373ffffffffffffffffffffffffffffffffffffffff160217905550808273ffffffffffffffffffffffffffffffffffffffff1661152f83610ab5565b73ffffffffffffffffffffffffffffffffffffffff167f8c5be1e5ebec7d5bd14f71427d1e84f3dd0314c0f7b2291e5b200ac8c7c3b92560405160405180910390a45050565b600061158082611448565b6115bf576040517f08c379a00000000000000000000000000000000000000000000000000000000081526004016115b690613080565b60405180910390fd5b60006115ca83610ab5565b90508073ffffffffffffffffffffffffffffffffffffffff168473ffffffffffffffffffffffffffffffffffffffff16148061163957508373ffffffffffffffffffffffffffffffffffffffff166116218461077f565b73ffffffffffffffffffffffffffffffffffffffff16145b8061164a5750611649818561134a565b5b91505092915050565b8273ffffffffffffffffffffffffffffffffffffffff1661167382610ab5565b73ffffffffffffffffffffffffffffffffffffffff16146116c9576040517f08c379a00000000000000000000000000000000000000000000000000000000081526004016116c090613112565b60405180910390fd5b600073ffffffffffffffffffffffffffffffffffffffff168273ffffffffffffffffffffffffffffffffffffffff161415611739576040517f08c379a0000000000000000000000000000000000000000000000000000000008152600401611730906131a4565b60405180910390fd5b611744838383611e50565b61174f6000826114bc565b6001600360008573ffffffffffffffffffffffffffffffffffffffff1673ffffffffffffffffffffffffffffffffffffffff168152602001908152602001600020600082825461179f9190612e7c565b925050819055506001600360008473ffffffffffffffffffffffffffffffffffffffff1673ffffffffffffffffffffffffffffffffffffffff16815260200190815260200160002060008282546117f691906131c4565b92505081905550816002600083815260200190815260200160002060006101000a81548173ffffffffffffffffffffffffffffffffffffffff021916908373ffffffffffffffffffffffffffffffffffffffff160217905550808273ffffffffffffffffffffffffffffffffffffffff168473ffffffffffffffffffffffffffffffffffffffff167fddf252ad1be2c89b69c2b068fc378daa952ba7f163c4a11628f55a4df523b3ef60405160405180910390a46118b5838383611e55565b505050565b600073ffffffffffffffffffffffffffffffffffffffff168273ffffffffffffffffffffffffffffffffffffffff16141561192a576040517f08c379a000000000000000000000000000000000000000000000000000000000815260040161192190613266565b60405180910390fd5b61193381611448565b15611973576040517f08c379a000000000000000000000000000000000000000000000000000000000815260040161196a906132d2565b60405180910390fd5b61197f60008383611e50565b6001600360008473ffffffffffffffffffffffffffffffffffffffff1673ffffffffffffffffffffffffffffffffffffffff16815260200190815260200160002060008282546119cf91906131c4565b92505081905550816002600083815260200190815260200160002060006101000a81548173ffffffffffffffffffffffffffffffffffffffff021916908373ffffffffffffffffffffffffffffffffffffffff160217905550808273ffffffffffffffffffffffffffffffffffffffff16600073ffffffffffffffffffffffffffffffffffffffff167fddf252ad1be2c89b69c2b068fc378daa952ba7f163c4a11628f55a4df523b3ef60405160405180910390a4611a9060008383611e55565b5050565b8173ffffffffffffffffffffffffffffffffffffffff168373ffffffffffffffffffffffffffffffffffffffff161415611b03576040517f08c379a0000000000000000000000000000000000000000000000000000000008152600401611afa9061333e565b60405180910390fd5b80600560008573ffffffffffffffffffffffffffffffffffffffff1673ffffffffffffffffffffffffffffffffffffffff16815260200190815260200160002060008473ffffffffffffffffffffffffffffffffffffffff1673ffffffffffffffffffffffffffffffffffffffff16815260200190815260200160002060006101000a81548160ff0219169083151502179055508173ffffffffffffffffffffffffffffffffffffffff168373ffffffffffffffffffffffffffffffffffffffff167f17307eab39ab6107e8899845ad3d59bd9653f200f220920489ca2b5937696c3183604051611bf4919061215c565b60405180910390a3505050565b611c0c848484611653565b611c1884848484611e5a565b611c57576040517f08c379a0000000000000000000000000000000000000000000000000000000008152600401611c4e906133d0565b60405180910390fd5b50505050565b606060098054611c6c90612784565b80601f0160208091040260200160405190810160405280929190818152602001828054611c9890612784565b8015611ce55780601f10611cba57610100808354040283529160200191611ce5565b820191906000526020600020905b815481529060010190602001808311611cc857829003601f168201915b5050505050905090565b60606000821415611d37576040518060400160405280600181526020017f30000000000000000000000000000000000000000000000000000000000000008152509050611e4b565b600082905060005b60008214611d69578080611d5290612e33565b915050600a82611d62919061341f565b9150611d3f565b60008167ffffffffffffffff811115611d8557611d84612411565b5b6040519080825280601f01601f191660200182016040528015611db75781602001600182028036833780820191505090505b5090505b60008514611e4457600182611dd09190612e7c565b9150600a85611ddf9190613450565b6030611deb91906131c4565b60f81b818381518110611e0157611e00613481565b5b60200101907effffffffffffffffffffffffffffffffffffffffffffffffffffffffffffff1916908160001a905350600a85611e3d919061341f565b9450611dbb565b8093505050505b919050565b505050565b505050565b6000611e7b8473ffffffffffffffffffffffffffffffffffffffff16611fe2565b15611fd5578373ffffffffffffffffffffffffffffffffffffffff1663150b7a02611ea46114b4565b8786866040518563ffffffff1660e01b8152600401611ec69493929190613505565b6020604051808303816000875af1925050508015611f0257506040513d601f19601f82011682018060405250810190611eff9190613566565b60015b611f85573d8060008114611f32576040519150601f19603f3d011682016040523d82523d6000602084013e611f37565b606091505b50600081511415611f7d576040517f08c379a0000000000000000000000000000000000000000000000000000000008152600401611f74906133d0565b60405180910390fd5b805181602001fd5b63150b7a0260e01b7bffffffffffffffffffffffffffffffffffffffffffffffffffffffff1916817bffffffffffffffffffffffffffffffffffffffffffffffffffffffff191614915050611fda565b600190505b949350505050565b6000808273ffffffffffffffffffffffffffffffffffffffff163b119050919050565b82805461201190612784565b90600052602060002090601f016020900481019282612033576000855561207a565b82601f1061204c57805160ff191683800117855561207a565b8280016001018555821561207a579182015b8281111561207957825182559160200191906001019061205e565b5b509050612087919061208b565b5090565b5b808211156120a457600081600090555060010161208c565b5090565b6000604051905090565b600080fd5b600080fd5b60007fffffffff0000000000000000000000000000000000000000000000000000000082169050919050565b6120f1816120bc565b81146120fc57600080fd5b50565b60008135905061210e816120e8565b92915050565b60006020828403121561212a576121296120b2565b5b6000612138848285016120ff565b91505092915050565b60008115159050919050565b61215681612141565b82525050565b6000602082019050612171600083018461214d565b92915050565b600081519050919050565b600082825260208201905092915050565b60005b838110156121b1578082015181840152602081019050612196565b838111156121c0576000848401525b50505050565b6000601f19601f8301169050919050565b60006121e282612177565b6121ec8185612182565b93506121fc818560208601612193565b612205816121c6565b840191505092915050565b6000602082019050818103600083015261222a81846121d7565b905092915050565b6000819050919050565b61224581612232565b811461225057600080fd5b50565b6000813590506122628161223c565b92915050565b60006020828403121561227e5761227d6120b2565b5b600061228c84828501612253565b91505092915050565b600073ffffffffffffffffffffffffffffffffffffffff82169050919050565b60006122c082612295565b9050919050565b6122d0816122b5565b82525050565b60006020820190506122eb60008301846122c7565b92915050565b6122fa816122b5565b811461230557600080fd5b50565b600081359050612317816122f1565b92915050565b60008060408385031215612334576123336120b2565b5b600061234285828601612308565b925050602061235385828601612253565b9150509250929050565b600080600060608486031215612376576123756120b2565b5b600061238486828701612308565b935050602061239586828701612308565b92505060406123a686828701612253565b9150509250925092565b6000602082840312156123c6576123c56120b2565b5b60006123d484828501612308565b91505092915050565b6123e681612232565b82525050565b600060208201905061240160008301846123dd565b92915050565b600080fd5b600080fd5b7f4e487b7100000000000000000000000000000000000000000000000000000000600052604160045260246000fd5b612449826121c6565b810181811067ffffffffffffffff8211171561246857612467612411565b5b80604052505050565b600061247b6120a8565b90506124878282612440565b919050565b600067ffffffffffffffff8211156124a7576124a6612411565b5b6124b0826121c6565b9050602081019050919050565b82818337600083830152505050565b60006124df6124da8461248c565b612471565b9050828152602081018484840111156124fb576124fa61240c565b5b6125068482856124bd565b509392505050565b600082601f83011261252357612522612407565b5b81356125338482602086016124cc565b91505092915050565b600060208284031215612552576125516120b2565b5b600082013567ffffffffffffffff8111156125705761256f6120b7565b5b61257c8482850161250e565b91505092915050565b61258e81612141565b811461259957600080fd5b50565b6000813590506125ab81612585565b92915050565b600080604083850312156125c8576125c76120b2565b5b60006125d685828601612308565b92505060206125e78582860161259c565b9150509250929050565b600067ffffffffffffffff82111561260c5761260b612411565b5b612615826121c6565b9050602081019050919050565b6000612635612630846125f1565b612471565b9050828152602081018484840111156126515761265061240c565b5b61265c8482856124bd565b509392505050565b600082601f83011261267957612678612407565b5b8135612689848260208601612622565b91505092915050565b600080600080608085870312156126ac576126ab6120b2565b5b60006126ba87828801612308565b94505060206126cb87828801612308565b93505060406126dc87828801612253565b925050606085013567ffffffffffffffff8111156126fd576126fc6120b7565b5b61270987828801612664565b91505092959194509250565b6000806040838503121561272c5761272b6120b2565b5b600061273a85828601612308565b925050602061274b85828601612308565b9150509250929050565b7f4e487b7100000000000000000000000000000000000000000000000000000000600052602260045260246000fd5b6000600282049050600182168061279c57607f821691505b602082108114156127b0576127af612755565b5b50919050565b7f4552433732313a20617070726f76656420717565727920666f72206e6f6e657860008201527f697374656e7420746f6b656e0000000000000000000000000000000000000000602082015250565b6000612812602c83612182565b915061281d826127b6565b604082019050919050565b6000602082019050818103600083015261284181612805565b9050919050565b7f4552433732313a20617070726f76616c20746f2063757272656e74206f776e6560008201527f7200000000000000000000000000000000000000000000000000000000000000602082015250565b60006128a4602183612182565b91506128af82612848565b604082019050919050565b600060208201905081810360008301526128d381612897565b9050919050565b7f4552433732313a20617070726f76652063616c6c6572206973206e6f74206f7760008201527f6e6572206e6f7220617070726f76656420666f7220616c6c0000000000000000602082015250565b6000612936603883612182565b9150612941826128da565b604082019050919050565b6000602082019050818103600083015261296581612929565b9050919050565b7f4552433732313a207472616e736665722063616c6c6572206973206e6f74206f60008201527f776e6572206e6f7220617070726f766564000000000000000000000000000000602082015250565b60006129c8603183612182565b91506129d38261296c565b604082019050919050565b600060208201905081810360008301526129f7816129bb565b9050919050565b7f6e6f74206f776e65720000000000000000000000000000000000000000000000600082015250565b6000612a34600983612182565b9150612a3f826129fe565b602082019050919050565b60006020820190508181036000830152612a6381612a27565b9050919050565b7f4552433732313a206f776e657220717565727920666f72206e6f6e657869737460008201527f656e7420746f6b656e0000000000000000000000000000000000000000000000602082015250565b6000612ac6602983612182565b9150612ad182612a6a565b604082019050919050565b60006020820190508181036000830152612af581612ab9565b9050919050565b7f4552433732313a2062616c616e636520717565727920666f7220746865207a6560008201527f726f206164647265737300000000000000000000000000000000000000000000602082015250565b6000612b58602a83612182565b9150612b6382612afc565b604082019050919050565b60006020820190508181036000830152612b8781612b4b565b9050919050565b7f75726920616c7265616479206c6f636b65640000000000000000000000000000600082015250565b6000612bc4601283612182565b9150612bcf82612b8e565b602082019050919050565b60006020820190508181036000830152612bf381612bb7565b9050919050565b7f736f6c64206f7574000000000000000000000000000000000000000000000000600082015250565b6000612c30600883612182565b9150612c3b82612bfa565b602082019050919050565b60006020820190508181036000830152612c5f81612c23565b9050919050565b7f73616c65206e6f74206163746976650000000000000000000000000000000000600082015250565b6000612c9c600f83612182565b9150612ca782612c66565b602082019050919050565b60006020820190508181036000830152612ccb81612c8f565b9050919050565b7f63616e206f6e6c79206d696e74203120746f20313020617420612074696d6500600082015250565b6000612d08601f83612182565b9150612d1382612cd2565b602082019050919050565b60006020820190508181036000830152612d3781612cfb565b9050919050565b7f4e487b7100000000000000000000000000000000000000000000000000000000600052601160045260246000fd5b6000612d7882612232565b9150612d8383612232565b9250817fffffffffffffffffffffffffffffffffffffffffffffffffffffffffffffffff0483118215151615612dbc57612dbb612d3e565b5b828202905092915050565b7f77726f6e672045544820616d6f756e742073656e740000000000000000000000600082015250565b6000612dfd601583612182565b9150612e0882612dc7565b602082019050919050565b60006020820190508181036000830152612e2c81612df0565b9050919050565b6000612e3e82612232565b91507fffffffffffffffffffffffffffffffffffffffffffffffffffffffffffffffff821415612e7157612e70612d3e565b5b600182019050919050565b6000612e8782612232565b9150612e9283612232565b925082821015612ea557612ea4612d3e565b5b828203905092915050565b7f757269206c6f636b656400000000000000000000000000000000000000000000600082015250565b6000612ee6600a83612182565b9150612ef182612eb0565b602082019050919050565b60006020820190508181036000830152612f1581612ed9565b9050919050565b7f4552433732314d657461646174613a2055524920717565727920666f72206e6f60008201527f6e6578697374656e7420746f6b656e0000000000000000000000000000000000602082015250565b6000612f78602f83612182565b9150612f8382612f1c565b604082019050919050565b60006020820190508181036000830152612fa781612f6b565b9050919050565b600081905092915050565b6000612fc482612177565b612fce8185612fae565b9350612fde818560208601612193565b80840191505092915050565b6000612ff68285612fb9565b91506130028284612fb9565b91508190509392505050565b7f4552433732313a206f70657261746f7220717565727920666f72206e6f6e657860008201527f697374656e7420746f6b656e0000000000000000000000000000000000000000602082015250565b600061306a602c83612182565b91506130758261300e565b604082019050919050565b600060208201905081810360008301526130998161305d565b9050919050565b7f4552433732313a207472616e736665722066726f6d20696e636f72726563742060008201527f6f776e6572000000000000000000000000000000000000000000000000000000602082015250565b60006130fc602583612182565b9150613107826130a0565b604082019050919050565b6000602082019050818103600083015261312b816130ef565b9050919050565b7f4552433732313a207472616e7366657220746f20746865207a65726f2061646460008201527f7265737300000000000000000000000000000000000000000000000000000000602082015250565b600061318e602483612182565b915061319982613132565b604082019050919050565b600060208201905081810360008301526131bd81613181565b9050919050565b60006131cf82612232565b91506131da83612232565b9250827fffffffffffffffffffffffffffffffffffffffffffffffffffffffffffffffff0382111561320f5761320e612d3e565b5b828201905092915050565b7f4552433732313a206d696e7420746f20746865207a65726f2061646472657373600082015250565b6000613250602083612182565b915061325b8261321a565b602082019050919050565b6000602082019050818103600083015261327f81613243565b9050919050565b7f4552433732313a20746f6b656e20616c7265616479206d696e74656400000000600082015250565b60006132bc601c83612182565b91506132c782613286565b602082019050919050565b600060208201905081810360008301526132eb816132af565b9050919050565b7f4552433732313a20617070726f766520746f2063616c6c657200000000000000600082015250565b6000613328601983612182565b9150613333826132f2565b602082019050919050565b600060208201905081810360008301526133578161331b565b9050919050565b7f4552433732313a207472616e7366657220746f206e6f6e20455243373231526560008201527f63656976657220696d706c656d656e7465720000000000000000000000000000602082015250565b60006133ba603283612182565b91506133c58261335e565b604082019050919050565b600060208201905081810360008301526133e9816133ad565b9050919050565b7f4e487b7100000000000000000000000000000000000000000000000000000000600052601260045260246000fd5b600061342a82612232565b915061343583612232565b925082613445576134446133f0565b5b828204905092915050565b600061345b82612232565b915061346683612232565b925082613476576134756133f0565b5b828206905092915050565b7f4e487b7100000000000000000000000000000000000000000000000000000000600052603260045260246000fd5b600081519050919050565b600082825260208201905092915050565b60006134d7826134b0565b6134e181856134bb565b93506134f1818560208601612193565b6134fa816121c6565b840191505092915050565b600060808201905061351a60008301876122c7565b61352760208301866122c7565b61353460408301856123dd565b818103606083015261354681846134cc565b905095945050505050565b600081519050613560816120e8565b92915050565b60006020828403121561357c5761357b6120b2565b5b600061358a84828501613551565b9150509291505056fea264697066735822122013eac56278adb96e1b72a88e2005f3a48fe601bf896afd4c475553e815024f2c64736f6c634300080b0033",
  "linkReferences": {},
  "deployedLinkReferences": {}
}