{
  "_format": "hh-sol-artifact-1",
  "contractName": "DogelonMartians",
  "sourceName": "contracts/DogelonMartians.sol",
  "abi": [
    {
      "inputs": [
        {
          "internalType": "string",
          "name": "name",
          "type": "string"
        },
        {
          "internalType": "string",
          "name": "symbol",
          "type": "string"
        },
        {
          "internalType": "string",
          "name": "_uri",
          "type": "string"
        }
      ],
      "stateMutability": "nonpayable",
      "type": "constructor"
    },
    {
      "anonymous": false,
      "inputs": [
        {
          "indexed": true,
          "internalType": "address",
          "name": "owner",
          "type": "address"
        },
        {
          "indexed": true,
          "internalType": "address",
          "name": "approved",
          "type": "address"
        },
        {
          "indexed": true,
          "internalType": "uint256",
          "name": "tokenId",
          "type": "uint256"
        }
      ],
      "name": "Approval",
      "type": "event"
    },
    {
      "anonymous": false,
      "inputs": [
        {
          "indexed": true,
          "internalType": "address",
          "name": "owner",
          "type": "address"
        },
        {
          "indexed": true,
          "internalType": "address",
          "name": "operator",
          "type": "address"
        },
        {
          "indexed": false,
          "internalType": "bool",
          "name": "approved",
          "type": "bool"
        }
      ],
      "name": "ApprovalForAll",
      "type": "event"
    },
    {
      "anonymous": false,
      "inputs": [
        {
          "indexed": true,
          "internalType": "address",
          "name": "from",
          "type": "address"
        },
        {
          "indexed": true,
          "internalType": "address",
          "name": "to",
          "type": "address"
        },
        {
          "indexed": true,
          "internalType": "uint256",
          "name": "tokenId",
          "type": "uint256"
        }
      ],
      "name": "Transfer",
      "type": "event"
    },
    {
      "inputs": [],
      "name": "MAX_MARTIANS",
      "outputs": [
        {
          "internalType": "uint256",
          "name": "",
          "type": "uint256"
        }
      ],
      "stateMutability": "view",
      "type": "function"
    },
    {
      "inputs": [],
      "name": "activate",
      "outputs": [],
      "stateMutability": "nonpayable",
      "type": "function"
    },
    {
      "inputs": [
        {
          "internalType": "address",
          "name": "to",
          "type": "address"
        },
        {
          "internalType": "uint256",
          "name": "tokenId",
          "type": "uint256"
        }
      ],
      "name": "approve",
      "outputs": [],
      "stateMutability": "nonpayable",
      "type": "function"
    },
    {
      "inputs": [
        {
          "internalType": "address",
          "name": "owner",
          "type": "address"
        }
      ],
      "name": "balanceOf",
      "outputs": [
        {
          "internalType": "uint256",
          "name": "",
          "type": "uint256"
        }
      ],
      "stateMutability": "view",
      "type": "function"
    },
    {
      "inputs": [],
      "name": "baseUri",
      "outputs": [
        {
          "internalType": "string",
          "name": "",
          "type": "string"
        }
      ],
      "stateMutability": "view",
      "type": "function"
    },
    {
      "inputs": [],
      "name": "currentSupply",
      "outputs": [
        {
          "internalType": "uint256",
          "name": "",
          "type": "uint256"
        }
      ],
      "stateMutability": "view",
      "type": "function"
    },
    {
      "inputs": [
        {
          "internalType": "uint256",
          "name": "tokenId",
          "type": "uint256"
        }
      ],
      "name": "getApproved",
      "outputs": [
        {
          "internalType": "address",
          "name": "",
          "type": "address"
        }
      ],
      "stateMutability": "view",
      "type": "function"
    },
    {
      "inputs": [
        {
          "internalType": "address",
          "name": "owner",
          "type": "address"
        },
        {
          "internalType": "address",
          "name": "operator",
          "type": "address"
        }
      ],
      "name": "isApprovedForAll",
      "outputs": [
        {
          "internalType": "bool",
          "name": "",
          "type": "bool"
        }
      ],
      "stateMutability": "view",
      "type": "function"
    },
    {
      "inputs": [],
      "name": "isSoldOut",
      "outputs": [
        {
          "internalType": "bool",
          "name": "",
          "type": "bool"
        }
      ],
      "stateMutability": "view",
      "type": "function"
    },
    {
      "inputs": [],
      "name": "lockUri",
      "outputs": [],
      "stateMutability": "nonpayable",
      "type": "function"
    },
    {
      "inputs": [
        {
          "internalType": "uint256",
          "name": "amountToBuy",
          "type": "uint256"
        }
      ],
      "name": "mint",
      "outputs": [],
      "stateMutability": "payable",
      "type": "function"
    },
    {
      "inputs": [],
      "name": "name",
      "outputs": [
        {
          "internalType": "string",
          "name": "",
          "type": "string"
        }
      ],
      "stateMutability": "view",
      "type": "function"
    },
    {
      "inputs": [],
      "name": "owner",
      "outputs": [
        {
          "internalType": "address",
          "name": "",
          "type": "address"
        }
      ],
      "stateMutability": "view",
      "type": "function"
    },
    {
      "inputs": [
        {
          "internalType": "uint256",
          "name": "tokenId",
          "type": "uint256"
        }
      ],
      "name": "ownerOf",
      "outputs": [
        {
          "internalType": "address",
          "name": "",
          "type": "address"
        }
      ],
      "stateMutability": "view",
      "type": "function"
    },
    {
      "inputs": [],
      "name": "price",
      "outputs": [
        {
          "internalType": "uint256",
          "name": "",
          "type": "uint256"
        }
      ],
      "stateMutability": "view",
      "type": "function"
    },
    {
      "inputs": [
        {
          "internalType": "address",
          "name": "from",
          "type": "address"
        },
        {
          "internalType": "address",
          "name": "to",
          "type": "address"
        },
        {
          "internalType": "uint256",
          "name": "tokenId",
          "type": "uint256"
        }
      ],
      "name": "safeTransferFrom",
      "outputs": [],
      "stateMutability": "nonpayable",
      "type": "function"
    },
    {
      "inputs": [
        {
          "internalType": "address",
          "name": "from",
          "type": "address"
        },
        {
          "internalType": "address",
          "name": "to",
          "type": "address"
        },
        {
          "internalType": "uint256",
          "name": "tokenId",
          "type": "uint256"
        },
        {
          "internalType": "bytes",
          "name": "_data",
          "type": "bytes"
        }
      ],
      "name": "safeTransferFrom",
      "outputs": [],
      "stateMutability": "nonpayable",
      "type": "function"
    },
    {
      "inputs": [],
      "name": "saleActive",
      "outputs": [
        {
          "internalType": "bool",
          "name": "",
          "type": "bool"
        }
      ],
      "stateMutability": "view",
      "type": "function"
    },
    {
      "inputs": [
        {
          "internalType": "address",
          "name": "operator",
          "type": "address"
        },
        {
          "internalType": "bool",
          "name": "approved",
          "type": "bool"
        }
      ],
      "name": "setApprovalForAll",
      "outputs": [],
      "stateMutability": "nonpayable",
      "type": "function"
    },
    {
      "inputs": [
        {
          "internalType": "string",
          "name": "newBaseUri",
          "type": "string"
        }
      ],
      "name": "setBaseUri",
      "outputs": [],
      "stateMutability": "nonpayable",
      "type": "function"
    },
    {
      "inputs": [
        {
          "internalType": "uint256",
          "name": "_price",
          "type": "uint256"
        }
      ],
      "name": "setPrice",
      "outputs": [],
      "stateMutability": "nonpayable",
      "type": "function"
    },
    {
      "inputs": [
        {
          "internalType": "bytes4",
          "name": "interfaceId",
          "type": "bytes4"
        }
      ],
      "name": "supportsInterface",
      "outputs": [
        {
          "internalType": "bool",
          "name": "",
          "type": "bool"
        }
      ],
      "stateMutability": "view",
      "type": "function"
    },
    {
      "inputs": [],
      "name": "symbol",
      "outputs": [
        {
          "internalType": "string",
          "name": "",
          "type": "string"
        }
      ],
      "stateMutability": "view",
      "type": "function"
    },
    {
      "inputs": [
        {
          "internalType": "uint256",
          "name": "tokenId",
          "type": "uint256"
        }
      ],
      "name": "tokenURI",
      "outputs": [
        {
          "internalType": "string",
          "name": "",
          "type": "string"
        }
      ],
      "stateMutability": "view",
      "type": "function"
    },
    {
      "inputs": [
        {
          "internalType": "address",
          "name": "from",
          "type": "address"
        },
        {
          "internalType": "address",
          "name": "to",
          "type": "address"
        },
        {
          "internalType": "uint256",
          "name": "tokenId",
          "type": "uint256"
        }
      ],
      "name": "transferFrom",
      "outputs": [],
      "stateMutability": "nonpayable",
      "type": "function"
    },
    {
      "inputs": [],
      "name": "uriLocked",
      "outputs": [
        {
          "internalType": "bool",
          "name": "",
          "type": "bool"
        }
      ],
      "stateMutability": "view",
      "type": "function"
    },
    {
      "inputs": [],
      "name": "withdraw",
      "outputs": [],
      "stateMutability": "nonpayable",
      "type": "function"
    }
  ],
  "bytecode": "0x60a060405267011c37937e0800006006556000600a60006101000a81548160ff0219169083151502179055503480156200003857600080fd5b5060405162003b4138038062003b4183398181016040528101906200005e919062000337565b8282816000908051906020019062000078929190620000ea565b50806001908051906020019062000091929190620000ea565b5050503373ffffffffffffffffffffffffffffffffffffffff1660808173ffffffffffffffffffffffffffffffffffffffff16815250508060099080519060200190620000e0929190620000ea565b5050505062000455565b828054620000f8906200041f565b90600052602060002090601f0160209004810192826200011c576000855562000168565b82601f106200013757805160ff191683800117855562000168565b8280016001018555821562000168579182015b82811115620001675782518255916020019190600101906200014a565b5b5090506200017791906200017b565b5090565b5b80821115620001965760008160009055506001016200017c565b5090565b6000604051905090565b600080fd5b600080fd5b600080fd5b600080fd5b6000601f19601f8301169050919050565b7f4e487b7100000000000000000000000000000000000000000000000000000000600052604160045260246000fd5b6200020382620001b8565b810181811067ffffffffffffffff82111715620002255762000224620001c9565b5b80604052505050565b60006200023a6200019a565b9050620002488282620001f8565b919050565b600067ffffffffffffffff8211156200026b576200026a620001c9565b5b6200027682620001b8565b9050602081019050919050565b60005b83811015620002a357808201518184015260208101905062000286565b83811115620002b3576000848401525b50505050565b6000620002d0620002ca846200024d565b6200022e565b905082815260208101848484011115620002ef57620002ee620001b3565b5b620002fc84828562000283565b509392505050565b600082601f8301126200031c576200031b620001ae565b5b81516200032e848260208601620002b9565b91505092915050565b600080600060608486031215620003535762000352620001a4565b5b600084015167ffffffffffffffff811115620003745762000373620001a9565b5b620003828682870162000304565b935050602084015167ffffffffffffffff811115620003a657620003a5620001a9565b5b620003b48682870162000304565b925050604084015167ffffffffffffffff811115620003d857620003d7620001a9565b5b620003e68682870162000304565b9150509250925092565b7f4e487b7100000000000000000000000000000000000000000000000000000000600052602260045260246000fd5b600060028204905060018216806200043857607f821691505b602082108114156200044f576200044e620003f0565b5b50919050565b6080516136a66200049b6000396000818161095001528181610a7d01528181610b0b01528181610d1701528181610d3b01528181610dd3015261120601526136a66000f3fe60806040526004361061019c5760003560e01c8063771282f6116100ec578063a0712d681161008a578063b88d4fde11610064578063b88d4fde1461056f578063b90a7d9414610598578063c87b56dd146105c3578063e985e9c5146106005761019c565b8063a0712d6814610501578063a0bcfc7f1461051d578063a22cb465146105465761019c565b8063934517ef116100c6578063934517ef1461046957806395d89b41146104805780639abc8320146104ab578063a035b1fe146104d65761019c565b8063771282f6146103ea5780638da5cb5b1461041557806391b7f5ed146104405761019c565b806323b872dd1161015957806342842e0e1161013357806342842e0e1461031c5780636352211e1461034557806368428a1b1461038257806370a08231146103ad5761019c565b806323b872dd146102b15780632da5ea17146102da5780633ccfd60b146103055761019c565b806301ffc9a7146101a157806306fdde03146101de578063081812fc14610209578063095ea7b3146102465780630f15f4c01461026f57806320c5ab6a14610286575b600080fd5b3480156101ad57600080fd5b506101c860048036038101906101c391906121f1565b61063d565b6040516101d59190612239565b60405180910390f35b3480156101ea57600080fd5b506101f361071f565b60405161020091906122ed565b60405180910390f35b34801561021557600080fd5b50610230600480360381019061022b9190612345565b6107b1565b60405161023d91906123b3565b60405180910390f35b34801561025257600080fd5b5061026d600480360381019061026891906123fa565b610836565b005b34801561027b57600080fd5b5061028461094e565b005b34801561029257600080fd5b5061029b6109f9565b6040516102a89190612239565b60405180910390f35b3480156102bd57600080fd5b506102d860048036038101906102d3919061243a565b610a0c565b005b3480156102e657600080fd5b506102ef610a6c565b6040516102fc9190612239565b60405180910390f35b34801561031157600080fd5b5061031a610a7b565b005b34801561032857600080fd5b50610343600480360381019061033e919061243a565b610b72565b005b34801561035157600080fd5b5061036c60048036038101906103679190612345565b610b92565b60405161037991906123b3565b60405180910390f35b34801561038e57600080fd5b50610397610c44565b6040516103a49190612239565b60405180910390f35b3480156103b957600080fd5b506103d460048036038101906103cf919061248d565b610c57565b6040516103e191906124c9565b60405180910390f35b3480156103f657600080fd5b506103ff610d0f565b60405161040c91906124c9565b60405180910390f35b34801561042157600080fd5b5061042a610d15565b60405161043791906123b3565b60405180910390f35b34801561044c57600080fd5b5061046760048036038101906104629190612345565b610d39565b005b34801561047557600080fd5b5061047e610dd1565b005b34801561048c57600080fd5b50610495610ed2565b6040516104a291906122ed565b60405180910390f35b3480156104b757600080fd5b506104c0610f64565b6040516104cd91906122ed565b60405180910390f35b3480156104e257600080fd5b506104eb610ff2565b6040516104f891906124c9565b60405180910390f35b61051b60048036038101906105169190612345565b610ff8565b005b34801561052957600080fd5b50610544600480360381019061053f9190612619565b611204565b005b34801561055257600080fd5b5061056d6004803603810190610568919061268e565b611302565b005b34801561057b57600080fd5b506105966004803603810190610591919061276f565b611318565b005b3480156105a457600080fd5b506105ad61137a565b6040516105ba91906124c9565b60405180910390f35b3480156105cf57600080fd5b506105ea60048036038101906105e59190612345565b611380565b6040516105f791906122ed565b60405180910390f35b34801561060c57600080fd5b50610627600480360381019061062291906127f2565b611427565b6040516106349190612239565b60405180910390f35b60007f80ac58cd000000000000000000000000000000000000000000000000000000007bffffffffffffffffffffffffffffffffffffffffffffffffffffffff1916827bffffffffffffffffffffffffffffffffffffffffffffffffffffffff1916148061070857507f5b5e139f000000000000000000000000000000000000000000000000000000007bffffffffffffffffffffffffffffffffffffffffffffffffffffffff1916827bffffffffffffffffffffffffffffffffffffffffffffffffffffffff1916145b806107185750610717826114bb565b5b9050919050565b60606000805461072e90612861565b80601f016020809104026020016040519081016040528092919081815260200182805461075a90612861565b80156107a75780601f1061077c576101008083540402835291602001916107a7565b820191906000526020600020905b81548152906001019060200180831161078a57829003601f168201915b5050505050905090565b60006107bc82611525565b6107fb576040517f08c379a00000000000000000000000000000000000000000000000000000000081526004016107f290612905565b60405180910390fd5b6004600083815260200190815260200160002060009054906101000a900473ffffffffffffffffffffffffffffffffffffffff169050919050565b600061084182610b92565b90508073ffffffffffffffffffffffffffffffffffffffff168373ffffffffffffffffffffffffffffffffffffffff1614156108b2576040517f08c379a00000000000000000000000000000000000000000000000000000000081526004016108a990612997565b60405180910390fd5b8073ffffffffffffffffffffffffffffffffffffffff166108d1611591565b73ffffffffffffffffffffffffffffffffffffffff16148061090057506108ff816108fa611591565b611427565b5b61093f576040517f08c379a000000000000000000000000000000000000000000000000000000000815260040161093690612a29565b60405180910390fd5b6109498383611599565b505050565b7f000000000000000000000000000000000000000000000000000000000000000073ffffffffffffffffffffffffffffffffffffffff163373ffffffffffffffffffffffffffffffffffffffff16146109dc576040517f08c379a00000000000000000000000000000000000000000000000000000000081526004016109d390612a95565b60405180910390fd5b6001600760006101000a81548160ff021916908315150217905550565b600a60009054906101000a900460ff1681565b610a1d610a17611591565b82611652565b610a5c576040517f08c379a0000000000000000000000000000000000000000000000000000000008152600401610a5390612b27565b60405180910390fd5b610a67838383611730565b505050565b60006127106008541015905090565b7f000000000000000000000000000000000000000000000000000000000000000073ffffffffffffffffffffffffffffffffffffffff163373ffffffffffffffffffffffffffffffffffffffff1614610b09576040517f08c379a0000000000000000000000000000000000000000000000000000000008152600401610b0090612a95565b60405180910390fd5b7f000000000000000000000000000000000000000000000000000000000000000073ffffffffffffffffffffffffffffffffffffffff166108fc479081150290604051600060405180830381858888f19350505050158015610b6f573d6000803e3d6000fd5b50565b610b8d83838360405180602001604052806000815250611318565b505050565b6000806002600084815260200190815260200160002060009054906101000a900473ffffffffffffffffffffffffffffffffffffffff169050600073ffffffffffffffffffffffffffffffffffffffff168173ffffffffffffffffffffffffffffffffffffffff161415610c3b576040517f08c379a0000000000000000000000000000000000000000000000000000000008152600401610c3290612bb9565b60405180910390fd5b80915050919050565b600760009054906101000a900460ff1681565b60008073ffffffffffffffffffffffffffffffffffffffff168273ffffffffffffffffffffffffffffffffffffffff161415610cc8576040517f08c379a0000000000000000000000000000000000000000000000000000000008152600401610cbf90612c4b565b60405180910390fd5b600360008373ffffffffffffffffffffffffffffffffffffffff1673ffffffffffffffffffffffffffffffffffffffff168152602001908152602001600020549050919050565b60085481565b7f000000000000000000000000000000000000000000000000000000000000000081565b7f000000000000000000000000000000000000000000000000000000000000000073ffffffffffffffffffffffffffffffffffffffff163373ffffffffffffffffffffffffffffffffffffffff1614610dc7576040517f08c379a0000000000000000000000000000000000000000000000000000000008152600401610dbe90612a95565b60405180910390fd5b8060068190555050565b7f000000000000000000000000000000000000000000000000000000000000000073ffffffffffffffffffffffffffffffffffffffff163373ffffffffffffffffffffffffffffffffffffffff1614610e5f576040517f08c379a0000000000000000000000000000000000000000000000000000000008152600401610e5690612a95565b60405180910390fd5b60001515600a60009054906101000a900460ff16151514610eb5576040517f08c379a0000000000000000000000000000000000000000000000000000000008152600401610eac90612cb7565b60405180910390fd5b6001600a60006101000a81548160ff021916908315150217905550565b606060018054610ee190612861565b80601f0160208091040260200160405190810160405280929190818152602001828054610f0d90612861565b8015610f5a5780601f10610f2f57610100808354040283529160200191610f5a565b820191906000526020600020905b815481529060010190602001808311610f3d57829003601f168201915b5050505050905090565b60098054610f7190612861565b80601f0160208091040260200160405190810160405280929190818152602001828054610f9d90612861565b8015610fea5780601f10610fbf57610100808354040283529160200191610fea565b820191906000526020600020905b815481529060010190602001808311610fcd57829003601f168201915b505050505081565b60065481565b6127106008541061103e576040517f08c379a000000000000000000000000000000000000000000000000000000000815260040161103590612d23565b60405180910390fd5b600760009054906101000a900460ff1661108d576040517f08c379a000000000000000000000000000000000000000000000000000000000815260040161108490612d8f565b60405180910390fd5b6001811015801561109f5750600a8111155b6110de576040517f08c379a00000000000000000000000000000000000000000000000000000000081526004016110d590612dfb565b60405180910390fd5b806006546110ec9190612e4a565b341461112d576040517f08c379a000000000000000000000000000000000000000000000000000000000815260040161112490612ef0565b60405180910390fd5b60005b81811015611200576111563360086000815461114b90612f10565b919050819055611997565b61271060085414156111ed576000600760006101000a81548160ff0219169083151502179055503373ffffffffffffffffffffffffffffffffffffffff166108fc600654600184866111a89190612f59565b6111b29190612f59565b6111bc9190612e4a565b9081150290604051600060405180830381858888f193505050501580156111e7573d6000803e3d6000fd5b50611200565b80806111f890612f10565b915050611130565b5050565b7f000000000000000000000000000000000000000000000000000000000000000073ffffffffffffffffffffffffffffffffffffffff163373ffffffffffffffffffffffffffffffffffffffff1614611292576040517f08c379a000000000000000000000000000000000000000000000000000000000815260040161128990612a95565b60405180910390fd5b60001515600a60009054906101000a900460ff161515146112e8576040517f08c379a00000000000000000000000000000000000000000000000000000000081526004016112df90612fd9565b60405180910390fd5b80600990805190602001906112fe9291906120e2565b5050565b61131461130d611591565b8383611b71565b5050565b611329611323611591565b83611652565b611368576040517f08c379a000000000000000000000000000000000000000000000000000000000815260040161135f90612b27565b60405180910390fd5b61137484848484611cde565b50505050565b61271081565b606061138b82611525565b6113ca576040517f08c379a00000000000000000000000000000000000000000000000000000000081526004016113c19061306b565b60405180910390fd5b60006113d4611d3a565b905060008151116113f4576040518060200160405280600081525061141f565b806113fe84611dcc565b60405160200161140f9291906130c7565b6040516020818303038152906040525b915050919050565b6000600560008473ffffffffffffffffffffffffffffffffffffffff1673ffffffffffffffffffffffffffffffffffffffff16815260200190815260200160002060008373ffffffffffffffffffffffffffffffffffffffff1673ffffffffffffffffffffffffffffffffffffffff16815260200190815260200160002060009054906101000a900460ff16905092915050565b60007f01ffc9a7000000000000000000000000000000000000000000000000000000007bffffffffffffffffffffffffffffffffffffffffffffffffffffffff1916827bffffffffffffffffffffffffffffffffffffffffffffffffffffffff1916149050919050565b60008073ffffffffffffffffffffffffffffffffffffffff166002600084815260200190815260200160002060009054906101000a900473ffffffffffffffffffffffffffffffffffffffff1673ffffffffffffffffffffffffffffffffffffffff1614159050919050565b600033905090565b816004600083815260200190815260200160002060006101000a81548173ffffffffffffffffffffffffffffffffffffffff021916908373ffffffffffffffffffffffffffffffffffffffff160217905550808273ffffffffffffffffffffffffffffffffffffffff1661160c83610b92565b73ffffffffffffffffffffffffffffffffffffffff167f8c5be1e5ebec7d5bd14f71427d1e84f3dd0314c0f7b2291e5b200ac8c7c3b92560405160405180910390a45050565b600061165d82611525565b61169c576040517f08c379a00000000000000000000000000000000000000000000000000000000081526004016116939061315d565b60405180910390fd5b60006116a783610b92565b90508073ffffffffffffffffffffffffffffffffffffffff168473ffffffffffffffffffffffffffffffffffffffff16148061171657508373ffffffffffffffffffffffffffffffffffffffff166116fe846107b1565b73ffffffffffffffffffffffffffffffffffffffff16145b8061172757506117268185611427565b5b91505092915050565b8273ffffffffffffffffffffffffffffffffffffffff1661175082610b92565b73ffffffffffffffffffffffffffffffffffffffff16146117a6576040517f08c379a000000000000000000000000000000000000000000000000000000000815260040161179d906131ef565b60405180910390fd5b600073ffffffffffffffffffffffffffffffffffffffff168273ffffffffffffffffffffffffffffffffffffffff161415611816576040517f08c379a000000000000000000000000000000000000000000000000000000000815260040161180d90613281565b60405180910390fd5b611821838383611f2d565b61182c600082611599565b6001600360008573ffffffffffffffffffffffffffffffffffffffff1673ffffffffffffffffffffffffffffffffffffffff168152602001908152602001600020600082825461187c9190612f59565b925050819055506001600360008473ffffffffffffffffffffffffffffffffffffffff1673ffffffffffffffffffffffffffffffffffffffff16815260200190815260200160002060008282546118d391906132a1565b92505081905550816002600083815260200190815260200160002060006101000a81548173ffffffffffffffffffffffffffffffffffffffff021916908373ffffffffffffffffffffffffffffffffffffffff160217905550808273ffffffffffffffffffffffffffffffffffffffff168473ffffffffffffffffffffffffffffffffffffffff167fddf252ad1be2c89b69c2b068fc378daa952ba7f163c4a11628f55a4df523b3ef60405160405180910390a4611992838383611f32565b505050565b600073ffffffffffffffffffffffffffffffffffffffff168273ffffffffffffffffffffffffffffffffffffffff161415611a07576040517f08c379a00000000000000000000000000000000000000000000000000000000081526004016119fe90613343565b60405180910390fd5b611a1081611525565b15611a50576040517f08c379a0000000000000000000000000000000000000000000000000000000008152600401611a47906133af565b60405180910390fd5b611a5c60008383611f2d565b6001600360008473ffffffffffffffffffffffffffffffffffffffff1673ffffffffffffffffffffffffffffffffffffffff1681526020019081526020016000206000828254611aac91906132a1565b92505081905550816002600083815260200190815260200160002060006101000a81548173ffffffffffffffffffffffffffffffffffffffff021916908373ffffffffffffffffffffffffffffffffffffffff160217905550808273ffffffffffffffffffffffffffffffffffffffff16600073ffffffffffffffffffffffffffffffffffffffff167fddf252ad1be2c89b69c2b068fc378daa952ba7f163c4a11628f55a4df523b3ef60405160405180910390a4611b6d60008383611f32565b5050565b8173ffffffffffffffffffffffffffffffffffffffff168373ffffffffffffffffffffffffffffffffffffffff161415611be0576040517f08c379a0000000000000000000000000000000000000000000000000000000008152600401611bd79061341b565b60405180910390fd5b80600560008573ffffffffffffffffffffffffffffffffffffffff1673ffffffffffffffffffffffffffffffffffffffff16815260200190815260200160002060008473ffffffffffffffffffffffffffffffffffffffff1673ffffffffffffffffffffffffffffffffffffffff16815260200190815260200160002060006101000a81548160ff0219169083151502179055508173ffffffffffffffffffffffffffffffffffffffff168373ffffffffffffffffffffffffffffffffffffffff167f17307eab39ab6107e8899845ad3d59bd9653f200f220920489ca2b5937696c3183604051611cd19190612239565b60405180910390a3505050565b611ce9848484611730565b611cf584848484611f37565b611d34576040517f08c379a0000000000000000000000000000000000000000000000000000000008152600401611d2b906134ad565b60405180910390fd5b50505050565b606060098054611d4990612861565b80601f0160208091040260200160405190810160405280929190818152602001828054611d7590612861565b8015611dc25780601f10611d9757610100808354040283529160200191611dc2565b820191906000526020600020905b815481529060010190602001808311611da557829003601f168201915b5050505050905090565b60606000821415611e14576040518060400160405280600181526020017f30000000000000000000000000000000000000000000000000000000000000008152509050611f28565b600082905060005b60008214611e46578080611e2f90612f10565b915050600a82611e3f91906134fc565b9150611e1c565b60008167ffffffffffffffff811115611e6257611e616124ee565b5b6040519080825280601f01601f191660200182016040528015611e945781602001600182028036833780820191505090505b5090505b60008514611f2157600182611ead9190612f59565b9150600a85611ebc919061352d565b6030611ec891906132a1565b60f81b818381518110611ede57611edd61355e565b5b60200101907effffffffffffffffffffffffffffffffffffffffffffffffffffffffffffff1916908160001a905350600a85611f1a91906134fc565b9450611e98565b8093505050505b919050565b505050565b505050565b6000611f588473ffffffffffffffffffffffffffffffffffffffff166120bf565b156120b2578373ffffffffffffffffffffffffffffffffffffffff1663150b7a02611f81611591565b8786866040518563ffffffff1660e01b8152600401611fa394939291906135e2565b6020604051808303816000875af1925050508015611fdf57506040513d601f19601f82011682018060405250810190611fdc9190613643565b60015b612062573d806000811461200f576040519150601f19603f3d011682016040523d82523d6000602084013e612014565b606091505b5060008151141561205a576040517f08c379a0000000000000000000000000000000000000000000000000000000008152600401612051906134ad565b60405180910390fd5b805181602001fd5b63150b7a0260e01b7bffffffffffffffffffffffffffffffffffffffffffffffffffffffff1916817bffffffffffffffffffffffffffffffffffffffffffffffffffffffff1916149150506120b7565b600190505b949350505050565b6000808273ffffffffffffffffffffffffffffffffffffffff163b119050919050565b8280546120ee90612861565b90600052602060002090601f0160209004810192826121105760008555612157565b82601f1061212957805160ff1916838001178555612157565b82800160010185558215612157579182015b8281111561215657825182559160200191906001019061213b565b5b5090506121649190612168565b5090565b5b80821115612181576000816000905550600101612169565b5090565b6000604051905090565b600080fd5b600080fd5b60007fffffffff0000000000000000000000000000000000000000000000000000000082169050919050565b6121ce81612199565b81146121d957600080fd5b50565b6000813590506121eb816121c5565b92915050565b6000602082840312156122075761220661218f565b5b6000612215848285016121dc565b91505092915050565b60008115159050919050565b6122338161221e565b82525050565b600060208201905061224e600083018461222a565b92915050565b600081519050919050565b600082825260208201905092915050565b60005b8381101561228e578082015181840152602081019050612273565b8381111561229d576000848401525b50505050565b6000601f19601f8301169050919050565b60006122bf82612254565b6122c9818561225f565b93506122d9818560208601612270565b6122e2816122a3565b840191505092915050565b6000602082019050818103600083015261230781846122b4565b905092915050565b6000819050919050565b6123228161230f565b811461232d57600080fd5b50565b60008135905061233f81612319565b92915050565b60006020828403121561235b5761235a61218f565b5b600061236984828501612330565b91505092915050565b600073ffffffffffffffffffffffffffffffffffffffff82169050919050565b600061239d82612372565b9050919050565b6123ad81612392565b82525050565b60006020820190506123c860008301846123a4565b92915050565b6123d781612392565b81146123e257600080fd5b50565b6000813590506123f4816123ce565b92915050565b600080604083850312156124115761241061218f565b5b600061241f858286016123e5565b925050602061243085828601612330565b9150509250929050565b6000806000606084860312156124535761245261218f565b5b6000612461868287016123e5565b9350506020612472868287016123e5565b925050604061248386828701612330565b9150509250925092565b6000602082840312156124a3576124a261218f565b5b60006124b1848285016123e5565b91505092915050565b6124c38161230f565b82525050565b60006020820190506124de60008301846124ba565b92915050565b600080fd5b600080fd5b7f4e487b7100000000000000000000000000000000000000000000000000000000600052604160045260246000fd5b612526826122a3565b810181811067ffffffffffffffff82111715612545576125446124ee565b5b80604052505050565b6000612558612185565b9050612564828261251d565b919050565b600067ffffffffffffffff821115612584576125836124ee565b5b61258d826122a3565b9050602081019050919050565b82818337600083830152505050565b60006125bc6125b784612569565b61254e565b9050828152602081018484840111156125d8576125d76124e9565b5b6125e384828561259a565b509392505050565b600082601f830112612600576125ff6124e4565b5b81356126108482602086016125a9565b91505092915050565b60006020828403121561262f5761262e61218f565b5b600082013567ffffffffffffffff81111561264d5761264c612194565b5b612659848285016125eb565b91505092915050565b61266b8161221e565b811461267657600080fd5b50565b60008135905061268881612662565b92915050565b600080604083850312156126a5576126a461218f565b5b60006126b3858286016123e5565b92505060206126c485828601612679565b9150509250929050565b600067ffffffffffffffff8211156126e9576126e86124ee565b5b6126f2826122a3565b9050602081019050919050565b600061271261270d846126ce565b61254e565b90508281526020810184848401111561272e5761272d6124e9565b5b61273984828561259a565b509392505050565b600082601f830112612756576127556124e4565b5b81356127668482602086016126ff565b91505092915050565b600080600080608085870312156127895761278861218f565b5b6000612797878288016123e5565b94505060206127a8878288016123e5565b93505060406127b987828801612330565b925050606085013567ffffffffffffffff8111156127da576127d9612194565b5b6127e687828801612741565b91505092959194509250565b600080604083850312156128095761280861218f565b5b6000612817858286016123e5565b9250506020612828858286016123e5565b9150509250929050565b7f4e487b7100000000000000000000000000000000000000000000000000000000600052602260045260246000fd5b6000600282049050600182168061287957607f821691505b6020821081141561288d5761288c612832565b5b50919050565b7f4552433732313a20617070726f76656420717565727920666f72206e6f6e657860008201527f697374656e7420746f6b656e0000000000000000000000000000000000000000602082015250565b60006128ef602c8361225f565b91506128fa82612893565b604082019050919050565b6000602082019050818103600083015261291e816128e2565b9050919050565b7f4552433732313a20617070726f76616c20746f2063757272656e74206f776e6560008201527f7200000000000000000000000000000000000000000000000000000000000000602082015250565b600061298160218361225f565b915061298c82612925565b604082019050919050565b600060208201905081810360008301526129b081612974565b9050919050565b7f4552433732313a20617070726f76652063616c6c6572206973206e6f74206f7760008201527f6e6572206e6f7220617070726f76656420666f7220616c6c0000000000000000602082015250565b6000612a1360388361225f565b9150612a1e826129b7565b604082019050919050565b60006020820190508181036000830152612a4281612a06565b9050919050565b7f6e6f74206f776e65720000000000000000000000000000000000000000000000600082015250565b6000612a7f60098361225f565b9150612a8a82612a49565b602082019050919050565b60006020820190508181036000830152612aae81612a72565b9050919050565b7f4552433732313a207472616e736665722063616c6c6572206973206e6f74206f60008201527f776e6572206e6f7220617070726f766564000000000000000000000000000000602082015250565b6000612b1160318361225f565b9150612b1c82612ab5565b604082019050919050565b60006020820190508181036000830152612b4081612b04565b9050919050565b7f4552433732313a206f776e657220717565727920666f72206e6f6e657869737460008201527f656e7420746f6b656e0000000000000000000000000000000000000000000000602082015250565b6000612ba360298361225f565b9150612bae82612b47565b604082019050919050565b60006020820190508181036000830152612bd281612b96565b9050919050565b7f4552433732313a2062616c616e636520717565727920666f7220746865207a6560008201527f726f206164647265737300000000000000000000000000000000000000000000602082015250565b6000612c35602a8361225f565b9150612c4082612bd9565b604082019050919050565b60006020820190508181036000830152612c6481612c28565b9050919050565b7f75726920616c7265616479206c6f636b65640000000000000000000000000000600082015250565b6000612ca160128361225f565b9150612cac82612c6b565b602082019050919050565b60006020820190508181036000830152612cd081612c94565b9050919050565b7f736f6c64206f7574000000000000000000000000000000000000000000000000600082015250565b6000612d0d60088361225f565b9150612d1882612cd7565b602082019050919050565b60006020820190508181036000830152612d3c81612d00565b9050919050565b7f73616c65206e6f74206163746976650000000000000000000000000000000000600082015250565b6000612d79600f8361225f565b9150612d8482612d43565b602082019050919050565b60006020820190508181036000830152612da881612d6c565b9050919050565b7f63616e206f6e6c79206d696e74203120746f20313020617420612074696d6500600082015250565b6000612de5601f8361225f565b9150612df082612daf565b602082019050919050565b60006020820190508181036000830152612e1481612dd8565b9050919050565b7f4e487b7100000000000000000000000000000000000000000000000000000000600052601160045260246000fd5b6000612e558261230f565b9150612e608361230f565b9250817fffffffffffffffffffffffffffffffffffffffffffffffffffffffffffffffff0483118215151615612e9957612e98612e1b565b5b828202905092915050565b7f77726f6e672045544820616d6f756e742073656e740000000000000000000000600082015250565b6000612eda60158361225f565b9150612ee582612ea4565b602082019050919050565b60006020820190508181036000830152612f0981612ecd565b9050919050565b6000612f1b8261230f565b91507fffffffffffffffffffffffffffffffffffffffffffffffffffffffffffffffff821415612f4e57612f4d612e1b565b5b600182019050919050565b6000612f648261230f565b9150612f6f8361230f565b925082821015612f8257612f81612e1b565b5b828203905092915050565b7f757269206c6f636b656400000000000000000000000000000000000000000000600082015250565b6000612fc3600a8361225f565b9150612fce82612f8d565b602082019050919050565b60006020820190508181036000830152612ff281612fb6565b9050919050565b7f4552433732314d657461646174613a2055524920717565727920666f72206e6f60008201527f6e6578697374656e7420746f6b656e0000000000000000000000000000000000602082015250565b6000613055602f8361225f565b915061306082612ff9565b604082019050919050565b6000602082019050818103600083015261308481613048565b9050919050565b600081905092915050565b60006130a182612254565b6130ab818561308b565b93506130bb818560208601612270565b80840191505092915050565b60006130d38285613096565b91506130df8284613096565b91508190509392505050565b7f4552433732313a206f70657261746f7220717565727920666f72206e6f6e657860008201527f697374656e7420746f6b656e0000000000000000000000000000000000000000602082015250565b6000613147602c8361225f565b9150613152826130eb565b604082019050919050565b600060208201905081810360008301526131768161313a565b9050919050565b7f4552433732313a207472616e736665722066726f6d20696e636f72726563742060008201527f6f776e6572000000000000000000000000000000000000000000000000000000602082015250565b60006131d960258361225f565b91506131e48261317d565b604082019050919050565b60006020820190508181036000830152613208816131cc565b9050919050565b7f4552433732313a207472616e7366657220746f20746865207a65726f2061646460008201527f7265737300000000000000000000000000000000000000000000000000000000602082015250565b600061326b60248361225f565b91506132768261320f565b604082019050919050565b6000602082019050818103600083015261329a8161325e565b9050919050565b60006132ac8261230f565b91506132b78361230f565b9250827fffffffffffffffffffffffffffffffffffffffffffffffffffffffffffffffff038211156132ec576132eb612e1b565b5b828201905092915050565b7f4552433732313a206d696e7420746f20746865207a65726f2061646472657373600082015250565b600061332d60208361225f565b9150613338826132f7565b602082019050919050565b6000602082019050818103600083015261335c81613320565b9050919050565b7f4552433732313a20746f6b656e20616c7265616479206d696e74656400000000600082015250565b6000613399601c8361225f565b91506133a482613363565b602082019050919050565b600060208201905081810360008301526133c88161338c565b9050919050565b7f4552433732313a20617070726f766520746f2063616c6c657200000000000000600082015250565b600061340560198361225f565b9150613410826133cf565b602082019050919050565b60006020820190508181036000830152613434816133f8565b9050919050565b7f4552433732313a207472616e7366657220746f206e6f6e20455243373231526560008201527f63656976657220696d706c656d656e7465720000000000000000000000000000602082015250565b600061349760328361225f565b91506134a28261343b565b604082019050919050565b600060208201905081810360008301526134c68161348a565b9050919050565b7f4e487b7100000000000000000000000000000000000000000000000000000000600052601260045260246000fd5b60006135078261230f565b91506135128361230f565b925082613522576135216134cd565b5b828204905092915050565b60006135388261230f565b91506135438361230f565b925082613553576135526134cd565b5b828206905092915050565b7f4e487b7100000000000000000000000000000000000000000000000000000000600052603260045260246000fd5b600081519050919050565b600082825260208201905092915050565b60006135b48261358d565b6135be8185613598565b93506135ce818560208601612270565b6135d7816122a3565b840191505092915050565b60006080820190506135f760008301876123a4565b61360460208301866123a4565b61361160408301856124ba565b818103606083015261362381846135a9565b905095945050505050565b60008151905061363d816121c5565b92915050565b6000602082840312156136595761365861218f565b5b60006136678482850161362e565b9150509291505056fea264697066735822122047298db285463176e53f9c5a33a30c00237f0beecdf2915a3b5534af41b02aa564736f6c634300080b0033",
  "linkReferences": {},
  "deployedLinkReferences": {}
}